{"abi":[{"type":"constructor","inputs":[],"stateMutability":"nonpayable"},{"type":"function","name":"getLand","inputs":[{"name":"_certId","type":"bytes32","internalType":"bytes32"}],"outputs":[{"name":"location","type":"string","internalType":"string"},{"name":"areaSize","type":"uint256","internalType":"uint256"},{"name":"owner","type":"string","internalType":"string"},{"name":"registered","type":"bool","internalType":"bool"},{"name":"disputed","type":"bool","internalType":"bool"},{"name":"taxPaid","type":"bool","internalType":"bool"}],"stateMutability":"view"},{"type":"function","name":"getOwnerHistory","inputs":[{"name":"_certId","type":"bytes32","internalType":"bytes32"}],"outputs":[{"name":"","type":"string[]","internalType":"string[]"}],"stateMutability":"view"},{"type":"function","name":"governmentOwner","inputs":[],"outputs":[{"name":"","type":"address","internalType":"address"}],"stateMutability":"view"},{"type":"function","name":"payTax","inputs":[{"name":"_certId","type":"bytes32","internalType":"bytes32"}],"outputs":[],"stateMutability":"nonpayable"},{"type":"function","name":"registerLand","inputs":[{"name":"_certId","type":"bytes32","internalType":"bytes32"},{"name":"_location","type":"string","internalType":"string"},{"name":"_areaSize","type":"uint256","internalType":"uint256"},{"name":"_ownerName","type":"string","internalType":"string"}],"outputs":[],"stateMutability":"nonpayable"},{"type":"function","name":"setDisputeStatus","inputs":[{"name":"_certId","type":"bytes32","internalType":"bytes32"},{"name":"_status","type":"bool","internalType":"bool"}],"outputs":[],"stateMutability":"nonpayable"},{"type":"function","name":"transferOwnership","inputs":[{"name":"_certId","type":"bytes32","internalType":"bytes32"},{"name":"_newOwner","type":"string","internalType":"string"}],"outputs":[],"stateMutability":"nonpayable"},{"type":"event","name":"DisputeStatusChanged","inputs":[{"name":"certId","type":"bytes32","indexed":true,"internalType":"bytes32"},{"name":"isDisputed","type":"bool","indexed":false,"internalType":"bool"}],"anonymous":false},{"type":"event","name":"LandRegistered","inputs":[{"name":"certId","type":"bytes32","indexed":true,"internalType":"bytes32"},{"name":"owner","type":"string","indexed":false,"internalType":"string"},{"name":"location","type":"string","indexed":false,"internalType":"string"}],"anonymous":false},{"type":"event","name":"LandTransferred","inputs":[{"name":"certId","type":"bytes32","indexed":true,"internalType":"bytes32"},{"name":"oldOwner","type":"string","indexed":false,"internalType":"string"},{"name":"newOwner","type":"string","indexed":false,"internalType":"string"}],"anonymous":false},{"type":"event","name":"TaxStatusUpdated","inputs":[{"name":"certId","type":"bytes32","indexed":true,"internalType":"bytes32"},{"name":"isTaxPaid","type":"bool","indexed":false,"internalType":"bool"}],"anonymous":false}],"bytecode":{"object":"0x6080604052348015600e575f5ffd5b50335f5f6101000a81548173ffffffffffffffffffffffffffffffffffffffff021916908373ffffffffffffffffffffffffffffffffffffffff1602179055506117638061005b5f395ff3fe608060405234801561000f575f5ffd5b506004361061007b575f3560e01c8063c3108f0b11610059578063c3108f0b146100e9578063cc30589d14610105578063f549f73c14610121578063f987cd9e1461013d5761007b565b80634e5451e41461007f5780639935f95d1461009b578063b442a2b3146100cb575b5f5ffd5b61009960048036038101906100949190610e0f565b610172565b005b6100b560048036038101906100b09190610e69565b610394565b6040516100c29190610faf565b60405180910390f35b6100d36104dc565b6040516100e0919061100e565b60405180910390f35b61010360048036038101906100fe9190610e69565b610500565b005b61011f600480360381019061011a919061105c565b610656565b005b61013b600480360381019061013691906110cd565b6107ac565b005b61015760048036038101906101529190610e69565b6109a4565b604051610169969594939291906111cf565b60405180910390f35b5f5f9054906101000a900473ffffffffffffffffffffffffffffffffffffffff1673ffffffffffffffffffffffffffffffffffffffff163373ffffffffffffffffffffffffffffffffffffffff1614610200576040517f08c379a00000000000000000000000000000000000000000000000000000000081526004016101f7906112ac565b60405180910390fd5b5f60015f8481526020019081526020015f209050806003015f9054906101000a900460ff16610264576040517f08c379a000000000000000000000000000000000000000000000000000000000815260040161025b90611314565b60405180910390fd5b5f8160020180546102749061135f565b80601f01602080910402602001604051908101604052809291908181526020018280546102a09061135f565b80156102eb5780601f106102c2576101008083540402835291602001916102eb565b820191905f5260205f20905b8154815290600101906020018083116102ce57829003601f168201915b50505050509050828260020190816103039190611540565b508160040183908060018154018082558091505060019003905f5260205f20015f9091909190915090816103379190611540565b505f8260030160026101000a81548160ff021916908315150217905550837ff59f1836c76bf862508761049e1a8eefbaafdbc9609cd997cb1e7312488ae021828560405161038692919061160f565b60405180910390a250505050565b606060015f8381526020019081526020015f206003015f9054906101000a900460ff166103f6576040517f08c379a00000000000000000000000000000000000000000000000000000000081526004016103ed9061168e565b60405180910390fd5b60015f8381526020019081526020015f20600401805480602002602001604051908101604052809291908181526020015f905b828210156104d1578382905f5260205f200180546104469061135f565b80601f01602080910402602001604051908101604052809291908181526020018280546104729061135f565b80156104bd5780601f10610494576101008083540402835291602001916104bd565b820191905f5260205f20905b8154815290600101906020018083116104a057829003601f168201915b505050505081526020019060010190610429565b505050509050919050565b5f5f9054906101000a900473ffffffffffffffffffffffffffffffffffffffff1681565b5f5f9054906101000a900473ffffffffffffffffffffffffffffffffffffffff1673ffffffffffffffffffffffffffffffffffffffff163373ffffffffffffffffffffffffffffffffffffffff161461058e576040517f08c379a0000000000000000000000000000000000000000000000000000000008152600401610585906112ac565b60405180910390fd5b60015f8281526020019081526020015f206003015f9054906101000a900460ff166105ee576040517f08c379a00000000000000000000000000000000000000000000000000000000081526004016105e590611314565b60405180910390fd5b6001805f8381526020019081526020015f2060030160026101000a81548160ff021916908315150217905550807ff5b9e63f57213a6cb519604bbc9ad641f1e89859bb44a4abca792f983db0b2d6600160405161064b91906116ac565b60405180910390a250565b5f5f9054906101000a900473ffffffffffffffffffffffffffffffffffffffff1673ffffffffffffffffffffffffffffffffffffffff163373ffffffffffffffffffffffffffffffffffffffff16146106e4576040517f08c379a00000000000000000000000000000000000000000000000000000000081526004016106db906112ac565b60405180910390fd5b60015f8381526020019081526020015f206003015f9054906101000a900460ff16610744576040517f08c379a000000000000000000000000000000000000000000000000000000000815260040161073b90611314565b60405180910390fd5b8060015f8481526020019081526020015f2060030160016101000a81548160ff021916908315150217905550817f1f429e3d4741dd93c8627279cfa0fcd1c853fd9c78646f2e5a024bc3e968c8b0826040516107a091906116ac565b60405180910390a25050565b5f5f9054906101000a900473ffffffffffffffffffffffffffffffffffffffff1673ffffffffffffffffffffffffffffffffffffffff163373ffffffffffffffffffffffffffffffffffffffff161461083a576040517f08c379a0000000000000000000000000000000000000000000000000000000008152600401610831906112ac565b60405180910390fd5b60015f8581526020019081526020015f206003015f9054906101000a900460ff161561089b576040517f08c379a00000000000000000000000000000000000000000000000000000000081526004016108929061170f565b60405180910390fd5b5f60015f8681526020019081526020015f20905083815f0190816108bf9190611540565b50828160010181905550818160020190816108da9190611540565b506001816003015f6101000a81548160ff0219169083151502179055505f8160030160016101000a81548160ff0219169083151502179055505f8160030160026101000a81548160ff0219169083151502179055508060040182908060018154018082558091505060019003905f5260205f20015f9091909190915090816109629190611540565b50847fca8faf99619810151952c127312f6244bb18d21c1644e07290addf658277ebc4838660405161099592919061160f565b60405180910390a25050505050565b60605f60605f5f5f5f60015f8981526020019081526020015f206040518060e00160405290815f820180546109d89061135f565b80601f0160208091040260200160405190810160405280929190818152602001828054610a049061135f565b8015610a4f5780601f10610a2657610100808354040283529160200191610a4f565b820191905f5260205f20905b815481529060010190602001808311610a3257829003601f168201915b5050505050815260200160018201548152602001600282018054610a729061135f565b80601f0160208091040260200160405190810160405280929190818152602001828054610a9e9061135f565b8015610ae95780601f10610ac057610100808354040283529160200191610ae9565b820191905f5260205f20905b815481529060010190602001808311610acc57829003601f168201915b50505050508152602001600382015f9054906101000a900460ff161515151581526020016003820160019054906101000a900460ff161515151581526020016003820160029054906101000a900460ff1615151515815260200160048201805480602002602001604051908101604052809291908181526020015f905b82821015610c0e578382905f5260205f20018054610b839061135f565b80601f0160208091040260200160405190810160405280929190818152602001828054610baf9061135f565b8015610bfa5780601f10610bd157610100808354040283529160200191610bfa565b820191905f5260205f20905b815481529060010190602001808311610bdd57829003601f168201915b505050505081526020019060010190610b66565b505050508152505090508060600151610c5c576040517f08c379a0000000000000000000000000000000000000000000000000000000008152600401610c539061168e565b60405180910390fd5b805f015181602001518260400151836060015184608001518560a001519650965096509650965096505091939550919395565b5f604051905090565b5f5ffd5b5f5ffd5b5f819050919050565b610cb281610ca0565b8114610cbc575f5ffd5b50565b5f81359050610ccd81610ca9565b92915050565b5f5ffd5b5f5ffd5b5f601f19601f8301169050919050565b7f4e487b71000000000000000000000000000000000000000000000000000000005f52604160045260245ffd5b610d2182610cdb565b810181811067ffffffffffffffff82111715610d4057610d3f610ceb565b5b80604052505050565b5f610d52610c8f565b9050610d5e8282610d18565b919050565b5f67ffffffffffffffff821115610d7d57610d7c610ceb565b5b610d8682610cdb565b9050602081019050919050565b828183375f83830152505050565b5f610db3610dae84610d63565b610d49565b905082815260208101848484011115610dcf57610dce610cd7565b5b610dda848285610d93565b509392505050565b5f82601f830112610df657610df5610cd3565b5b8135610e06848260208601610da1565b91505092915050565b5f5f60408385031215610e2557610e24610c98565b5b5f610e3285828601610cbf565b925050602083013567ffffffffffffffff811115610e5357610e52610c9c565b5b610e5f85828601610de2565b9150509250929050565b5f60208284031215610e7e57610e7d610c98565b5b5f610e8b84828501610cbf565b91505092915050565b5f81519050919050565b5f82825260208201905092915050565b5f819050602082019050919050565b5f81519050919050565b5f82825260208201905092915050565b8281835e5f83830152505050565b5f610eef82610ebd565b610ef98185610ec7565b9350610f09818560208601610ed7565b610f1281610cdb565b840191505092915050565b5f610f288383610ee5565b905092915050565b5f602082019050919050565b5f610f4682610e94565b610f508185610e9e565b935083602082028501610f6285610eae565b805f5b85811015610f9d5784840389528151610f7e8582610f1d565b9450610f8983610f30565b925060208a01995050600181019050610f65565b50829750879550505050505092915050565b5f6020820190508181035f830152610fc78184610f3c565b905092915050565b5f73ffffffffffffffffffffffffffffffffffffffff82169050919050565b5f610ff882610fcf565b9050919050565b61100881610fee565b82525050565b5f6020820190506110215f830184610fff565b92915050565b5f8115159050919050565b61103b81611027565b8114611045575f5ffd5b50565b5f8135905061105681611032565b92915050565b5f5f6040838503121561107257611071610c98565b5b5f61107f85828601610cbf565b925050602061109085828601611048565b9150509250929050565b5f819050919050565b6110ac8161109a565b81146110b6575f5ffd5b50565b5f813590506110c7816110a3565b92915050565b5f5f5f5f608085870312156110e5576110e4610c98565b5b5f6110f287828801610cbf565b945050602085013567ffffffffffffffff81111561111357611112610c9c565b5b61111f87828801610de2565b9350506040611130878288016110b9565b925050606085013567ffffffffffffffff81111561115157611150610c9c565b5b61115d87828801610de2565b91505092959194509250565b5f82825260208201905092915050565b5f61118382610ebd565b61118d8185611169565b935061119d818560208601610ed7565b6111a681610cdb565b840191505092915050565b6111ba8161109a565b82525050565b6111c981611027565b82525050565b5f60c0820190508181035f8301526111e78189611179565b90506111f660208301886111b1565b81810360408301526112088187611179565b905061121760608301866111c0565b61122460808301856111c0565b61123160a08301846111c0565b979650505050505050565b7f48616e796120426164616e2050657274616e6168616e2079616e67206469697a5f8201527f696e6b616e000000000000000000000000000000000000000000000000000000602082015250565b5f611296602583611169565b91506112a18261123c565b604082019050919050565b5f6020820190508181035f8301526112c38161128a565b9050919050565b7f536572746966696b617420746964616b20646974656d756b616e0000000000005f82015250565b5f6112fe601a83611169565b9150611309826112ca565b602082019050919050565b5f6020820190508181035f83015261132b816112f2565b9050919050565b7f4e487b71000000000000000000000000000000000000000000000000000000005f52602260045260245ffd5b5f600282049050600182168061137657607f821691505b60208210810361138957611388611332565b5b50919050565b5f819050815f5260205f209050919050565b5f6020601f8301049050919050565b5f82821b905092915050565b5f600883026113eb7fffffffffffffffffffffffffffffffffffffffffffffffffffffffffffffffff826113b0565b6113f586836113b0565b95508019841693508086168417925050509392505050565b5f819050919050565b5f61143061142b6114268461109a565b61140d565b61109a565b9050919050565b5f819050919050565b61144983611416565b61145d61145582611437565b8484546113bc565b825550505050565b5f5f905090565b611474611465565b61147f818484611440565b505050565b5f5b828110156114a55761149a5f82840161146c565b600181019050611486565b505050565b601f8211156114f857828211156114f7576114c48161138f565b6114cd836113a1565b6114d6856113a1565b60208610156114e3575f90505b8083016114f282840382611484565b505050505b5b505050565b5f82821c905092915050565b5f6115185f19846008026114fd565b1980831691505092915050565b5f6115308383611509565b9150826002028217905092915050565b61154982610ebd565b67ffffffffffffffff81111561156257611561610ceb565b5b61156c825461135f565b6115778282856114aa565b5f60209050601f8311600181146115a8575f8415611596578287015190505b6115a08582611525565b865550611607565b601f1984166115b68661138f565b5f5b828110156115dd578489015182556001820191506020850194506020810190506115b8565b868310156115fa57848901516115f6601f891682611509565b8355505b6001600288020188555050505b505050505050565b5f6040820190508181035f8301526116278185611179565b9050818103602083015261163b8184611179565b90509392505050565b7f536572746966696b617420746964616b207465726461667461720000000000005f82015250565b5f611678601a83611169565b915061168382611644565b602082019050919050565b5f6020820190508181035f8301526116a58161166c565b9050919050565b5f6020820190506116bf5f8301846111c0565b92915050565b7f494420536572746966696b6174207375646168207465726461667461722100005f82015250565b5f6116f9601e83611169565b9150611704826116c5565b602082019050919050565b5f6020820190508181035f830152611726816116ed565b905091905056fea2646970667358221220e92e192c5b377dab95ee38f77c05a53efcf944d9b52f8673502e9b8b69d111e764736f6c63430008230033","linkReferences":{}},"methodIdentifiers":{"getLand(bytes32)":"f987cd9e","getOwnerHistory(bytes32)":"9935f95d","governmentOwner()":"b442a2b3","payTax(bytes32)":"c3108f0b","registerLand(bytes32,string,uint256,string)":"f549f73c","setDisputeStatus(bytes32,bool)":"cc30589d","transferOwnership(bytes32,string)":"4e5451e4"},"id":4}