{"abi":[{"type":"constructor","inputs":[],"stateMutability":"nonpayable"},{"type":"function","name":"getCertificate","inputs":[{"name":"_certHash","type":"bytes32","internalType":"bytes32"}],"outputs":[{"name":"name","type":"string","internalType":"string"},{"name":"major","type":"string","internalType":"string"},{"name":"date","type":"uint256","internalType":"uint256"},{"name":"valid","type":"bool","internalType":"bool"}],"stateMutability":"view"},{"type":"function","name":"owner","inputs":[],"outputs":[{"name":"","type":"address","internalType":"address"}],"stateMutability":"view"},{"type":"function","name":"registerCertificate","inputs":[{"name":"_certHash","type":"bytes32","internalType":"bytes32"},{"name":"_name","type":"string","internalType":"string"},{"name":"_major","type":"string","internalType":"string"}],"outputs":[],"stateMutability":"nonpayable"},{"type":"function","name":"revokeCertificate","inputs":[{"name":"_certHash","type":"bytes32","internalType":"bytes32"}],"outputs":[],"stateMutability":"nonpayable"},{"type":"event","name":"CertificateRegistered","inputs":[{"name":"certHash","type":"bytes32","indexed":true,"internalType":"bytes32"},{"name":"studentName","type":"string","indexed":false,"internalType":"string"},{"name":"issuer","type":"address","indexed":true,"internalType":"address"}],"anonymous":false},{"type":"event","name":"CertificateRevoked","inputs":[{"name":"certHash","type":"bytes32","indexed":true,"internalType":"bytes32"},{"name":"issuer","type":"address","indexed":true,"internalType":"address"}],"anonymous":false}],"bytecode":{"object":"0x6080604052348015600e575f5ffd5b50335f5f6101000a81548173ffffffffffffffffffffffffffffffffffffffff021916908373ffffffffffffffffffffffffffffffffffffffff160217905550610e868061005b5f395ff3fe608060405234801561000f575f5ffd5b506004361061004a575f3560e01c80638da5cb5b1461004e578063c6cbc52a1461006c578063d3cd096314610088578063f333fe08146100a4575b5f5ffd5b6100566100d7565b6040516100639190610638565b60405180910390f35b61008660048036038101906100819190610695565b6100fb565b005b6100a2600480360381019061009d91906107fc565b61025b565b005b6100be60048036038101906100b99190610695565b610429565b6040516100ce9493929190610916565b60405180910390f35b5f5f9054906101000a900473ffffffffffffffffffffffffffffffffffffffff1681565b5f5f9054906101000a900473ffffffffffffffffffffffffffffffffffffffff1673ffffffffffffffffffffffffffffffffffffffff163373ffffffffffffffffffffffffffffffffffffffff1614610189576040517f08c379a0000000000000000000000000000000000000000000000000000000008152600401610180906109d7565b60405180910390fd5b60015f8281526020019081526020015f206003015f9054906101000a900460ff166101e9576040517f08c379a00000000000000000000000000000000000000000000000000000000081526004016101e090610a65565b60405180910390fd5b5f60015f8381526020019081526020015f206003015f6101000a81548160ff0219169083151502179055503373ffffffffffffffffffffffffffffffffffffffff16817f1dbd7f0554a6447214abb6405781d5ee119037a7024fcb7fffd542c3c12cd77660405160405180910390a350565b5f5f9054906101000a900473ffffffffffffffffffffffffffffffffffffffff1673ffffffffffffffffffffffffffffffffffffffff163373ffffffffffffffffffffffffffffffffffffffff16146102e9576040517f08c379a00000000000000000000000000000000000000000000000000000000081526004016102e0906109d7565b60405180910390fd5b60015f8481526020019081526020015f206003015f9054906101000a900460ff161561034a576040517f08c379a000000000000000000000000000000000000000000000000000000000815260040161034190610acd565b60405180910390fd5b60405180608001604052808381526020018281526020014281526020016001151581525060015f8581526020019081526020015f205f820151815f0190816103929190610cf9565b5060208201518160010190816103a89190610cf9565b50604082015181600201556060820151816003015f6101000a81548160ff0219169083151502179055509050503373ffffffffffffffffffffffffffffffffffffffff16837f989163822f5388d8ddd22be4c8916de6d556adfa326e64a886884468b3d770b28460405161041c9190610dc8565b60405180910390a3505050565b6060805f5f5f60015f8781526020019081526020015f206040518060800160405290815f8201805461045a90610b18565b80601f016020809104026020016040519081016040528092919081815260200182805461048690610b18565b80156104d15780601f106104a8576101008083540402835291602001916104d1565b820191905f5260205f20905b8154815290600101906020018083116104b457829003601f168201915b505050505081526020016001820180546104ea90610b18565b80601f016020809104026020016040519081016040528092919081815260200182805461051690610b18565b80156105615780601f1061053857610100808354040283529160200191610561565b820191905f5260205f20905b81548152906001019060200180831161054457829003601f168201915b5050505050815260200160028201548152602001600382015f9054906101000a900460ff16151515158152505090505f8160400151036105d6576040517f08c379a00000000000000000000000000000000000000000000000000000000081526004016105cd90610e32565b60405180910390fd5b805f01518160200151826040015183606001519450945094509450509193509193565b5f73ffffffffffffffffffffffffffffffffffffffff82169050919050565b5f610622826105f9565b9050919050565b61063281610618565b82525050565b5f60208201905061064b5f830184610629565b92915050565b5f604051905090565b5f5ffd5b5f5ffd5b5f819050919050565b61067481610662565b811461067e575f5ffd5b50565b5f8135905061068f8161066b565b92915050565b5f602082840312156106aa576106a961065a565b5b5f6106b784828501610681565b91505092915050565b5f5ffd5b5f5ffd5b5f601f19601f8301169050919050565b7f4e487b71000000000000000000000000000000000000000000000000000000005f52604160045260245ffd5b61070e826106c8565b810181811067ffffffffffffffff8211171561072d5761072c6106d8565b5b80604052505050565b5f61073f610651565b905061074b8282610705565b919050565b5f67ffffffffffffffff82111561076a576107696106d8565b5b610773826106c8565b9050602081019050919050565b828183375f83830152505050565b5f6107a061079b84610750565b610736565b9050828152602081018484840111156107bc576107bb6106c4565b5b6107c7848285610780565b509392505050565b5f82601f8301126107e3576107e26106c0565b5b81356107f384826020860161078e565b91505092915050565b5f5f5f606084860312156108135761081261065a565b5b5f61082086828701610681565b935050602084013567ffffffffffffffff8111156108415761084061065e565b5b61084d868287016107cf565b925050604084013567ffffffffffffffff81111561086e5761086d61065e565b5b61087a868287016107cf565b9150509250925092565b5f81519050919050565b5f82825260208201905092915050565b8281835e5f83830152505050565b5f6108b682610884565b6108c0818561088e565b93506108d081856020860161089e565b6108d9816106c8565b840191505092915050565b5f819050919050565b6108f6816108e4565b82525050565b5f8115159050919050565b610910816108fc565b82525050565b5f6080820190508181035f83015261092e81876108ac565b9050818103602083015261094281866108ac565b905061095160408301856108ed565b61095e6060830184610907565b95945050505050565b7f48616e79612070656d696c696b206b6f6e7472616b2079616e672064617061745f8201527f206d656e67656b73656b75736900000000000000000000000000000000000000602082015250565b5f6109c1602d8361088e565b91506109cc82610967565b604082019050919050565b5f6020820190508181035f8301526109ee816109b5565b9050919050565b7f536572746966696b617420746964616b20616b746966206174617520746964615f8201527f6b20646974656d756b616e000000000000000000000000000000000000000000602082015250565b5f610a4f602b8361088e565b9150610a5a826109f5565b604082019050919050565b5f6020820190508181035f830152610a7c81610a43565b9050919050565b7f536572746966696b6174207375646168207465726461667461720000000000005f82015250565b5f610ab7601a8361088e565b9150610ac282610a83565b602082019050919050565b5f6020820190508181035f830152610ae481610aab565b9050919050565b7f4e487b71000000000000000000000000000000000000000000000000000000005f52602260045260245ffd5b5f6002820490506001821680610b2f57607f821691505b602082108103610b4257610b41610aeb565b5b50919050565b5f819050815f5260205f209050919050565b5f6020601f8301049050919050565b5f82821b905092915050565b5f60088302610ba47fffffffffffffffffffffffffffffffffffffffffffffffffffffffffffffffff82610b69565b610bae8683610b69565b95508019841693508086168417925050509392505050565b5f819050919050565b5f610be9610be4610bdf846108e4565b610bc6565b6108e4565b9050919050565b5f819050919050565b610c0283610bcf565b610c16610c0e82610bf0565b848454610b75565b825550505050565b5f5f905090565b610c2d610c1e565b610c38818484610bf9565b505050565b5f5b82811015610c5e57610c535f828401610c25565b600181019050610c3f565b505050565b601f821115610cb15782821115610cb057610c7d81610b48565b610c8683610b5a565b610c8f85610b5a565b6020861015610c9c575f90505b808301610cab82840382610c3d565b505050505b5b505050565b5f82821c905092915050565b5f610cd15f1984600802610cb6565b1980831691505092915050565b5f610ce98383610cc2565b9150826002028217905092915050565b610d0282610884565b67ffffffffffffffff811115610d1b57610d1a6106d8565b5b610d258254610b18565b610d30828285610c63565b5f60209050601f831160018114610d61575f8415610d4f578287015190505b610d598582610cde565b865550610dc0565b601f198416610d6f86610b48565b5f5b82811015610d9657848901518255600182019150602085019450602081019050610d71565b86831015610db35784890151610daf601f891682610cc2565b8355505b6001600288020188555050505b505050505050565b5f6020820190508181035f830152610de081846108ac565b905092915050565b7f536572746966696b617420746964616b20646974656d756b616e0000000000005f82015250565b5f610e1c601a8361088e565b9150610e2782610de8565b602082019050919050565b5f6020820190508181035f830152610e4981610e10565b905091905056fea2646970667358221220b66db9a8142ab36d097e524ed1d29628c6c6ec37c6e4b2a746b40eb14996ca6964736f6c63430008230033","linkReferences":{}},"methodIdentifiers":{"getCertificate(bytes32)":"f333fe08","owner()":"8da5cb5b","registerCertificate(bytes32,string,string)":"d3cd0963","revokeCertificate(bytes32)":"c6cbc52a"},"id":1}