{"abi":[{"type":"constructor","inputs":[],"stateMutability":"nonpayable"},{"type":"function","name":"admin","inputs":[],"outputs":[{"name":"","type":"address","internalType":"address"}],"stateMutability":"view"},{"type":"function","name":"getAdmin","inputs":[],"outputs":[{"name":"","type":"address","internalType":"address"}],"stateMutability":"view"},{"type":"function","name":"getAllCertificateIds","inputs":[],"outputs":[{"name":"","type":"uint256[]","internalType":"uint256[]"}],"stateMutability":"view"},{"type":"function","name":"getCertificateCount","inputs":[],"outputs":[{"name":"","type":"uint256","internalType":"uint256"}],"stateMutability":"view"},{"type":"function","name":"getLand","inputs":[{"name":"_id","type":"uint256","internalType":"uint256"}],"outputs":[{"name":"","type":"string","internalType":"string"},{"name":"","type":"uint256","internalType":"uint256"},{"name":"","type":"string","internalType":"string"},{"name":"","type":"address","internalType":"address"},{"name":"","type":"bool","internalType":"bool"},{"name":"","type":"bool","internalType":"bool"},{"name":"","type":"bool","internalType":"bool"}],"stateMutability":"view"},{"type":"function","name":"getMyCertificateIds","inputs":[],"outputs":[{"name":"","type":"uint256[]","internalType":"uint256[]"}],"stateMutability":"view"},{"type":"function","name":"payTax","inputs":[{"name":"_id","type":"uint256","internalType":"uint256"}],"outputs":[],"stateMutability":"nonpayable"},{"type":"function","name":"registerLand","inputs":[{"name":"_location","type":"string","internalType":"string"},{"name":"_area","type":"uint256","internalType":"uint256"},{"name":"_ownerName","type":"string","internalType":"string"}],"outputs":[],"stateMutability":"nonpayable"},{"type":"function","name":"setDisputeStatus","inputs":[{"name":"_id","type":"uint256","internalType":"uint256"},{"name":"_status","type":"bool","internalType":"bool"}],"outputs":[],"stateMutability":"nonpayable"},{"type":"function","name":"transferOwnership","inputs":[{"name":"_id","type":"uint256","internalType":"uint256"},{"name":"_newOwnerName","type":"string","internalType":"string"}],"outputs":[],"stateMutability":"nonpayable"}],"bytecode":{"object":"0x6080604052348015600e575f5ffd5b503360015f6101000a81548173ffffffffffffffffffffffffffffffffffffffff021916908373ffffffffffffffffffffffffffffffffffffffff1602179055506118808061005c5f395ff3fe608060405234801561000f575f5ffd5b506004361061009c575f3560e01c80638fa44e15116100645780638fa44e1514610132578063a05aaf5014610150578063f02dd53f1461016c578063f851a440146101a2578063fa024549146101c05761009c565b80631b4be203146100a05780635b93f20d146100be5780636e9960c3146100da5780637e6e448a146100f85780638809f72714610114575b5f5ffd5b6100a86101dc565b6040516100b59190610e1d565b60405180910390f35b6100d860048036038101906100d39190610ead565b6103df565b005b6100e26104ff565b6040516100ef9190610f2a565b60405180910390f35b610112600480360381019061010d919061107f565b610527565b005b61011c6106c3565b6040516101299190611116565b60405180910390f35b61013a6106cb565b6040516101479190610e1d565b60405180910390f35b61016a6004803603810190610165919061112f565b6107fa565b005b6101866004803603810190610181919061112f565b61098e565b60405161019997969594939291906111c9565b60405180910390f35b6101aa610c22565b6040516101b79190610f2a565b60405180910390f35b6101da60048036038101906101d59190611244565b610c47565b005b60605f5f90505f600190505b5f5481116102a35760025f8281526020019081526020015f2060030160159054906101000a900460ff16801561027c57503373ffffffffffffffffffffffffffffffffffffffff1660025f8381526020019081526020015f206003015f9054906101000a900473ffffffffffffffffffffffffffffffffffffffff1673ffffffffffffffffffffffffffffffffffffffff16145b1561029057818061028c906112cb565b9250505b808061029b906112cb565b9150506101e8565b505f8167ffffffffffffffff8111156102bf576102be610f5b565b5b6040519080825280602002602001820160405280156102ed5781602001602082028036833780820191505090505b5090505f5f90505f600190505b5f5481116103d55760025f8281526020019081526020015f2060030160159054906101000a900460ff16801561038e57503373ffffffffffffffffffffffffffffffffffffffff1660025f8381526020019081526020015f206003015f9054906101000a900473ffffffffffffffffffffffffffffffffffffffff1673ffffffffffffffffffffffffffffffffffffffff16145b156103c257808383815181106103a7576103a6611312565b5b60200260200101818152505081806103be906112cb565b9250505b80806103cd906112cb565b9150506102fa565b5081935050505090565b60015f9054906101000a900473ffffffffffffffffffffffffffffffffffffffff1673ffffffffffffffffffffffffffffffffffffffff163373ffffffffffffffffffffffffffffffffffffffff161461046e576040517f08c379a0000000000000000000000000000000000000000000000000000000008152600401610465906113af565b60405180910390fd5b60025f8381526020019081526020015f2060030160159054906101000a900460ff166104cf576040517f08c379a00000000000000000000000000000000000000000000000000000000081526004016104c690611417565b60405180910390fd5b8060025f8481526020019081526020015f2060030160146101000a81548160ff0219169083151502179055505050565b5f60015f9054906101000a900473ffffffffffffffffffffffffffffffffffffffff16905090565b5f8211610569576040517f08c379a00000000000000000000000000000000000000000000000000000000081526004016105609061147f565b60405180910390fd5b5f5f81548092919061057a906112cb565b91905055506040518060e001604052808481526020018381526020018281526020013373ffffffffffffffffffffffffffffffffffffffff1681526020015f151581526020016001151581526020015f151581525060025f5f5481526020019081526020015f205f820151815f0190816105f491906116ab565b5060208201518160010155604082015181600201908161061491906116ab565b506060820151816003015f6101000a81548173ffffffffffffffffffffffffffffffffffffffff021916908373ffffffffffffffffffffffffffffffffffffffff16021790555060808201518160030160146101000a81548160ff02191690831515021790555060a08201518160030160156101000a81548160ff02191690831515021790555060c08201518160030160166101000a81548160ff021916908315150217905550905050505050565b5f5f54905090565b60605f5f90505f600190505b5f5481116107285760025f8281526020019081526020015f2060030160159054906101000a900460ff1615610715578180610711906112cb565b9250505b8080610720906112cb565b9150506106d7565b505f8167ffffffffffffffff81111561074457610743610f5b565b5b6040519080825280602002602001820160405280156107725781602001602082028036833780820191505090505b5090505f5f90505f600190505b5f5481116107f05760025f8281526020019081526020015f2060030160159054906101000a900460ff16156107dd57808383815181106107c2576107c1611312565b5b60200260200101818152505081806107d9906112cb565b9250505b80806107e8906112cb565b91505061077f565b5081935050505090565b60025f8281526020019081526020015f2060030160159054906101000a900460ff1661085b576040517f08c379a000000000000000000000000000000000000000000000000000000000815260040161085290611417565b60405180910390fd5b3373ffffffffffffffffffffffffffffffffffffffff1660025f8381526020019081526020015f206003015f9054906101000a900473ffffffffffffffffffffffffffffffffffffffff1673ffffffffffffffffffffffffffffffffffffffff16146108fc576040517f08c379a00000000000000000000000000000000000000000000000000000000081526004016108f3906117c4565b60405180910390fd5b60025f8281526020019081526020015f2060030160169054906101000a900460ff161561095e576040517f08c379a00000000000000000000000000000000000000000000000000000000081526004016109559061182c565b60405180910390fd5b600160025f8381526020019081526020015f2060030160166101000a81548160ff02191690831515021790555050565b60605f60605f5f5f5f60025f8981526020019081526020015f2060030160159054906101000a900460ff166109f8576040517f08c379a00000000000000000000000000000000000000000000000000000000081526004016109ef90611417565b60405180910390fd5b5f60025f8a81526020019081526020015f206040518060e00160405290815f82018054610a24906114ca565b80601f0160208091040260200160405190810160405280929190818152602001828054610a50906114ca565b8015610a9b5780601f10610a7257610100808354040283529160200191610a9b565b820191905f5260205f20905b815481529060010190602001808311610a7e57829003601f168201915b5050505050815260200160018201548152602001600282018054610abe906114ca565b80601f0160208091040260200160405190810160405280929190818152602001828054610aea906114ca565b8015610b355780601f10610b0c57610100808354040283529160200191610b35565b820191905f5260205f20905b815481529060010190602001808311610b1857829003601f168201915b50505050508152602001600382015f9054906101000a900473ffffffffffffffffffffffffffffffffffffffff1673ffffffffffffffffffffffffffffffffffffffff1673ffffffffffffffffffffffffffffffffffffffff1681526020016003820160149054906101000a900460ff161515151581526020016003820160159054906101000a900460ff161515151581526020016003820160169054906101000a900460ff1615151515815250509050805f015181602001518260400151836060015184608001518560a001518660c00151975097509750975097509750975050919395979092949650565b60015f9054906101000a900473ffffffffffffffffffffffffffffffffffffffff1681565b60015f9054906101000a900473ffffffffffffffffffffffffffffffffffffffff1673ffffffffffffffffffffffffffffffffffffffff163373ffffffffffffffffffffffffffffffffffffffff1614610cd6576040517f08c379a0000000000000000000000000000000000000000000000000000000008152600401610ccd906113af565b60405180910390fd5b60025f8381526020019081526020015f2060030160159054906101000a900460ff16610d37576040517f08c379a0000000000000000000000000000000000000000000000000000000008152600401610d2e90611417565b60405180910390fd5b8060025f8481526020019081526020015f206002019081610d5891906116ab565b505050565b5f81519050919050565b5f82825260208201905092915050565b5f819050602082019050919050565b5f819050919050565b610d9881610d86565b82525050565b5f610da98383610d8f565b60208301905092915050565b5f602082019050919050565b5f610dcb82610d5d565b610dd58185610d67565b9350610de083610d77565b805f5b83811015610e10578151610df78882610d9e565b9750610e0283610db5565b925050600181019050610de3565b5085935050505092915050565b5f6020820190508181035f830152610e358184610dc1565b905092915050565b5f604051905090565b5f5ffd5b5f5ffd5b610e5781610d86565b8114610e61575f5ffd5b50565b5f81359050610e7281610e4e565b92915050565b5f8115159050919050565b610e8c81610e78565b8114610e96575f5ffd5b50565b5f81359050610ea781610e83565b92915050565b5f5f60408385031215610ec357610ec2610e46565b5b5f610ed085828601610e64565b9250506020610ee185828601610e99565b9150509250929050565b5f73ffffffffffffffffffffffffffffffffffffffff82169050919050565b5f610f1482610eeb565b9050919050565b610f2481610f0a565b82525050565b5f602082019050610f3d5f830184610f1b565b92915050565b5f5ffd5b5f5ffd5b5f601f19601f8301169050919050565b7f4e487b71000000000000000000000000000000000000000000000000000000005f52604160045260245ffd5b610f9182610f4b565b810181811067ffffffffffffffff82111715610fb057610faf610f5b565b5b80604052505050565b5f610fc2610e3d565b9050610fce8282610f88565b919050565b5f67ffffffffffffffff821115610fed57610fec610f5b565b5b610ff682610f4b565b9050602081019050919050565b828183375f83830152505050565b5f61102361101e84610fd3565b610fb9565b90508281526020810184848401111561103f5761103e610f47565b5b61104a848285611003565b509392505050565b5f82601f83011261106657611065610f43565b5b8135611076848260208601611011565b91505092915050565b5f5f5f6060848603121561109657611095610e46565b5b5f84013567ffffffffffffffff8111156110b3576110b2610e4a565b5b6110bf86828701611052565b93505060206110d086828701610e64565b925050604084013567ffffffffffffffff8111156110f1576110f0610e4a565b5b6110fd86828701611052565b9150509250925092565b61111081610d86565b82525050565b5f6020820190506111295f830184611107565b92915050565b5f6020828403121561114457611143610e46565b5b5f61115184828501610e64565b91505092915050565b5f81519050919050565b5f82825260208201905092915050565b8281835e5f83830152505050565b5f61118c8261115a565b6111968185611164565b93506111a6818560208601611174565b6111af81610f4b565b840191505092915050565b6111c381610e78565b82525050565b5f60e0820190508181035f8301526111e1818a611182565b90506111f06020830189611107565b81810360408301526112028188611182565b90506112116060830187610f1b565b61121e60808301866111ba565b61122b60a08301856111ba565b61123860c08301846111ba565b98975050505050505050565b5f5f6040838503121561125a57611259610e46565b5b5f61126785828601610e64565b925050602083013567ffffffffffffffff81111561128857611287610e4a565b5b61129485828601611052565b9150509250929050565b7f4e487b71000000000000000000000000000000000000000000000000000000005f52601160045260245ffd5b5f6112d582610d86565b91507fffffffffffffffffffffffffffffffffffffffffffffffffffffffffffffffff82036113075761130661129e565b5b600182019050919050565b7f4e487b71000000000000000000000000000000000000000000000000000000005f52603260045260245ffd5b7f4f6e6c792061646d696e2063616e20706572666f726d207468697320616374695f8201527f6f6e000000000000000000000000000000000000000000000000000000000000602082015250565b5f611399602283611164565b91506113a48261133f565b604082019050919050565b5f6020820190508181035f8301526113c68161138d565b9050919050565b7f4c616e6420646f6573206e6f74206578697374000000000000000000000000005f82015250565b5f611401601383611164565b915061140c826113cd565b602082019050919050565b5f6020820190508181035f83015261142e816113f5565b9050919050565b7f41726561206d7573742062652067726561746572207468616e207a65726f00005f82015250565b5f611469601e83611164565b915061147482611435565b602082019050919050565b5f6020820190508181035f8301526114968161145d565b9050919050565b7f4e487b71000000000000000000000000000000000000000000000000000000005f52602260045260245ffd5b5f60028204905060018216806114e157607f821691505b6020821081036114f4576114f361149d565b5b50919050565b5f819050815f5260205f209050919050565b5f6020601f8301049050919050565b5f82821b905092915050565b5f600883026115567fffffffffffffffffffffffffffffffffffffffffffffffffffffffffffffffff8261151b565b611560868361151b565b95508019841693508086168417925050509392505050565b5f819050919050565b5f61159b61159661159184610d86565b611578565b610d86565b9050919050565b5f819050919050565b6115b483611581565b6115c86115c0826115a2565b848454611527565b825550505050565b5f5f905090565b6115df6115d0565b6115ea8184846115ab565b505050565b5f5b82811015611610576116055f8284016115d7565b6001810190506115f1565b505050565b601f82111561166357828211156116625761162f816114fa565b6116388361150c565b6116418561150c565b602086101561164e575f90505b80830161165d828403826115ef565b505050505b5b505050565b5f82821c905092915050565b5f6116835f1984600802611668565b1980831691505092915050565b5f61169b8383611674565b9150826002028217905092915050565b6116b48261115a565b67ffffffffffffffff8111156116cd576116cc610f5b565b5b6116d782546114ca565b6116e2828285611615565b5f60209050601f831160018114611713575f8415611701578287015190505b61170b8582611690565b865550611772565b601f198416611721866114fa565b5f5b8281101561174857848901518255600182019150602085019450602081019050611723565b868310156117655784890151611761601f891682611674565b8355505b6001600288020188555050505b505050505050565b7f4f6e6c792072656769737472616e742063616e207061792074617800000000005f82015250565b5f6117ae601b83611164565b91506117b98261177a565b602082019050919050565b5f6020820190508181035f8301526117db816117a2565b9050919050565b7f54617820616c72656164792070616964000000000000000000000000000000005f82015250565b5f611816601083611164565b9150611821826117e2565b602082019050919050565b5f6020820190508181035f8301526118438161180a565b905091905056fea26469706673582212205b11ba5bfdedcada07949868e6168b6ba355ab192cfc644cb24492599001f02564736f6c63430008230033","linkReferences":{}},"methodIdentifiers":{"admin()":"f851a440","getAdmin()":"6e9960c3","getAllCertificateIds()":"8fa44e15","getCertificateCount()":"8809f727","getLand(uint256)":"f02dd53f","getMyCertificateIds()":"1b4be203","payTax(uint256)":"a05aaf50","registerLand(string,uint256,string)":"7e6e448a","setDisputeStatus(uint256,bool)":"5b93f20d","transferOwnership(uint256,string)":"fa024549"},"id":3}